{
  "contractName": "TodoList",
  "abi": [
    {
      "constant": true,
      "inputs": [],
      "name": "taskCount",
      "outputs": [
        {
          "name": "",
          "type": "uint256"
        }
      ],
      "payable": false,
      "stateMutability": "view",
      "type": "function",
      "signature": "0xb6cb58a5"
    }
  ],
  "bytecode": "0x608060405260008055348015601357600080fd5b50609e806100226000396000f3fe608060405260043610603f576000357c0100000000000000000000000000000000000000000000000000000000900463ffffffff168063b6cb58a5146044575b600080fd5b348015604f57600080fd5b506056606c565b6040518082815260200191505060405180910390f35b6000548156fea165627a7a723058202197797315f8d5f7df5f926172974b5df6279389ac50325866feca172a24175d0029",
  "source": "pragma solidity ^0.5.0;\n\ncontract TodoList {\n//we will keep a track of the number of items in the To-do list with the help of a special variable called state variable \n\tuint public taskCount = 0; //state variables inside of solidity are actaully written to the blockchain. They represent the state of the blockchain and the state of the smart contract is going to change anytime this task count changes. These are a lot like class variables in an object oriented context where the scope of the variable belongs to the entire smart contract, not necessarily like a function or something. \n\t//we can also create a way to read this value from the smart contract with keyword--> public. It provides some function for us that allows us to read the value task count from the to-do list and solidity gives us a function whenever we use this public keyword.\n\n//and we will store this value inside the smart contract as a way to get started and ensure that everything is set up properly in our project\n\n// we will deploy this simple smart contract to the blockchain and see if we can actually connect to it.\n\n}",
  "sourcePath": "/Users/somyatomar/eth-todo-list/contracts/TodoList.sol",
  "compiler": {
    "name": "solc",
    "version": "0.5.0+commit.1d4f565a.Emscripten.clang"
  },
  "schemaVersion": "3.0.1",
  "updatedAt": "2022-08-19T14:53:09.555Z",
  "devdoc": {
    "methods": {}
  },
  "userdoc": {
    "methods": {}
  }
}